:100000000C9470010C9498010C9498010C94980134
:100010000C9498010C9498010C9498010C949801FC
:100020000C9498010C949F020C94690D0C94350C5F
:100030000C9498010C9498010C9498010C949801DC
:100040000C9498010C9498010C9498010C949801CC
:100050000C9498010C9498010C9498010C9435061A
:100060000C9498010C9498010C9498010C949801AC
:100070000C9498010C9498010C9498010C9498019C
:100080000C9498010C9498010C9498010C9498018C
:100090000C9498010C9498010C9498010C9498017C
:1000A0000C9498010C9498010C949801440747070C
:1000B00036073A0740076807680768074B074F0786
:1000C000530759075D07680763070000000200092E
:1000D0000F0000030401000C00000408020110409E
:1000E00080401020408040800802040180402010A1
:1000F000020110801020404004040404040304059D
:1001000002020202040302020202060606060606B4
:10011000040402020204000000002300260029005B
:100120002C002F0000000000250028002B002E00CE
:10013000310000000000240027002A002D003000BC
:1001400000000000000000002A2B28000000000032
:10015000000000000000000000000000000000009F
:100160002C9EB4A0A1A2A434A6A7A5AE362D3738E4
:10017000271E1F20212223242526B333B62EB7B8ED
:100180009F8485868788898A8B8C8D8E8F909192AB
:10019000939495969798999A9B9C9D2F3130A3ADF7
:1001A000350405060708090A0B0C0D0E0F10111275
:1001B000131415161718191A1B1C1DAFB1B0B50072
:1001C00009040200010300000009210101000122CD
:1001D00075000705840340000105010904A101859C
:1001E00003050919012920150025017501952055E0
:1001F00000650081020502150026FF00A10009BB71
:1002000009BA750895028102C00501093915002552
:10021000073500463B0165147504950181020939D3
:10022000150025073500463B0165147504950181CD
:1002300002150026FF0075080901A10009300931E7
:10024000093209330934093595068102C0C000C15D
:100250008081C112010002020000404F1B06920083
:10026000010102000112010002000000404F1B06C4
:1002700092000101020001537061726B46756E00BD
:10028000537061726B46756E2050726F204D6963BA
:10029000726F0004030904080B0002020201000946
:1002A00004000001020200000524001001052401E1
:1002B000010104240206052406000107058103103C
:1002C000004009040100020A000000070502024084
:1002D00000000705830240000000E905EB09E70E76
:1002E00011241FBECFEFDAE0DEBFCDBF11E0A0E0EA
:1002F000B1E0E2EFF3E202C005900D92A434B10741
:10030000D9F722E0A4E4B1E001C01D92AB33B207FB
:10031000E1F712E0C0EED2E004C02297FE010E9495
:100320008810CA3DD107C9F70E94FC090C94F71147
:100330000C940000CF93DF93DC01FB0122835183F7
:1003400040831296CD91DC91139788819381892BFC
:10035000888382818D7F813041F415968C91159729
:100360009381892B15968C931597828181508230C9
:1003700040F416968C9116979381892B16968C9340
:1003800016978091680014969C91892B8093680041
:10039000DF91CF910895EF92FF920F931F93CF9328
:1003A000DF9300D000D0CDB7DEB77C01FC018085A3
:1003B0009185009779F08C01FC018481861306C039
:1003C000B801C7010E949A0180E03DC0F801858113
:1003D0009681EFCF87E090E02C834A835B8369832B
:1003E0000E940F0ADC0111961C921E9212961C921A
:1003F00012972C814A815B816981009719F11496CB
:100400006C93149712962C93129716961C921E9228
:100410001597E62FF0E0E652FF4FE4911396EC9328
:100420001397F70180859185892B19F4B187A087EF
:1004300003C0F801B683A583BD01C7010E949A01DC
:1004400081E001C08FEF0F900F900F900F90DF9120
:10045000CF911F910F91FF90EF900895242FE82FD7
:10046000F0E0E850FF4FE491EE23D9F061157105FB
:10047000C1F0F0E03297E330F10540F4EE0FFF1FDA
:10048000E05EFE4F0190F081E02D02C0E0E0F0E080
:10049000A081B1819C919783AB01682FCF010C940F
:1004A000CB018FEF0895FF920F931F93CF93DF93AC
:1004B000EC012091B3018F813D819091B3014E8178
:1004C000F090B301F094F4229323F92A8227F822C2
:1004D0008091B3018F830885198501151105E1F01D
:1004E000D80113969C918F2D892381F08091B301BF
:1004F000892391E009F490E09093B101F80184819F
:100500008093B2010190F081E02D0995D8011596F4
:100510000D911C911697E1CF8BB39C81892349F0F3
:100520008BB3892B8BBBE881F98180818093B301E8
:10053000C0CFDF91CF911F910F91FF9008951F922F
:100540000F920FB60F9211242F933F934F935F9307
:100550006F937F938F939F93AF93BF93EF93FF938B
:10056000E091A701F091A80180818093B30187EA0F
:1005700091E00E945302FF91EF91BF91AF919F9143
:100580008F917F916F915F914F913F912F910F903C
:100590000FBE0F901F901895CF93C82FCC2391F0CA
:1005A0005D98289860E570E080E090E00E94AE06DB
:1005B0005D9A289A60E570E080E090E00E94AE06C7
:1005C000C150ECCFCF910895DF92EF92FF920F933D
:1005D0001F93CF93DF930BE711E03FE6E32E31E06B
:1005E000F32EC0E0D0E0CE010E94E111D82ECE0162
:1005F00001960E94E111682F8D2D0E94240EF801B2
:10060000819391938F01CE010C960E94E111D82E17
:10061000CE010D960E94E111682F8D2D0E94240EAF
:10062000F701819391937F012296CC30D105D9F6C1
:10063000DF91CF911F910F91FF90EF90DF90089580
:10064000CF92DF92EF92FF920F931F93CF93DF939E
:100650004BE7E42E41E0F42E0FE611E0C0E0D0E0DD
:10066000F7016181CE010E94E911F7016081F2E09A
:10067000EF0EF11CCE0101960E94E911F801618193
:10068000CE010C960E94E911F80160810E5F1F4FA8
:10069000CE010D960E94E9112296CC30D10501F7CA
:1006A000DF91CF911F910F91FF90EF90DF90CF904E
:1006B00008954F925F926F927F928F929F92AF9226
:1006C000BF92CF92DF92EF92FF921F93CF93DF936F
:1006D000CDB7DEB72C970FB6F894DEBF0FBECDBFF7
:1006E0000E947F065D98289880904601909047016F
:1006F000A0904801B090490157E8C52E51E0D52E91
:10070000EBE7F1E04FE651E02B013C0118E8410E28
:1007100013E1511E611C711CD6012D913D916D019B
:10072000243CB9E03B0768F4DA01ED90FC901197A6
:10073000E216F30618F42D933C930AC021153105F7
:1007400049F0E080F1802E153F0520F431832083AD
:10075000530142014E5F5F4F3296B3E9CB16B1E0D1
:10076000DB06D1F68092460190924701A0924801A3
:10077000B092490181149104A104B10409F456C056
:10078000681579058A059B0508F450C0FE0131966D
:100790002BE731E06FE671E0DB018D919D91BD01AA
:1007A000D9014D915D919D01841B950B8836B1E077
:1007B0009B0718F09183808302C0118210823296C9
:1007C00011E06B37710741F789819A81892BA1F07C
:1007D0008B819C81892B81F08D819E81892B61F099
:1007E0008F819885892B41F089859A85892B21F005
:1007F0008B859C85892B29F483E10E94A207892B94
:1008000069F484E00E94CC020E94200361E08DEB39
:1008100091E00E94BC091092450108C01092460167
:100820001092470110924801109249012C960FB680
:10083000F894DEBF0FBECDBFDF91CF911F91FF9027
:10084000EF90DF90CF90BF90AF909F908F907F9070
:100850006F905F904F9008950F931F93CF93DF9306
:10086000C82FD0E0FE01E05FFE4F80810E94A2070A
:100870008E01000F111F000F111F019751F40E94EC
:100880008B06F801E65BFE4F60837183828393835E
:100890001BC00E948B06F801E65BFE4F00811181B0
:1008A00022813381AB01401B510BFE01EE0FFF1F74
:1008B000EE59FE4F5183408380916E01C65FDE4F3B
:1008C0009881892B80936E01DF91CF911F910F91B9
:1008D000089580E00C942C0481E00C942C0482E0B8
:1008E0000C942C0483E00C942C0484E00C942C04D1
:1008F00085E00C942C0441E050E069E674E08091BE
:1009000010010E942E0241E050E06CE674E08091FC
:1009100011010E942E0241E050E06FE674E08091E8
:1009200012010E942E0241E050E062E774E08091E3
:1009300013010E942E0241E050E065E774E08091CF
:1009400014010E942E0241E050E068E774E08091BB
:1009500015010C942E0262E083E10E9469070E9457
:10096000E4020E947B048091850190918601883683
:10097000914060F08091790190917A01893B9B4090
:1009800028F483E10E94A207892BA1F481E08093DF
:1009900045015D982898EBE7F1E0AFE6B1E084EC23
:1009A00099E0819391931D921D9221E0E738F2071F
:1009B000C1F7089561E08DEB91E00C94BC09CF93F1
:1009C000DF9380916E018823F9F0F89440916E01D5
:1009D00040934401CAE0D1E0E7E8F1E080E090E034
:1009E0002991242349F0DC01AA0FBB1FAE59BE4F49
:1009F0002D913C913183208301963296863091056A
:100A000079F710926E01789410924401DF91CF91A2
:100A10000895AF92BF92CF92DF92EF92FF920F9321
:100A20001F93CF930E94DF04809145018111C6C0BE
:100A3000E0906F01F090700100E010E020917B01E8
:100A400030917C0140E050E0609187017091880115
:100A500080E090E01F921F921F92CFE7CF93E1E8D2
:100A6000AE2EBB24BA94CB2CDB2C0E94DD0D8DEB7B
:100A700091E00E94CE09E0907101F090720100E0D7
:100A800010E020917D0130917E0140E050E06091C6
:100A9000890170918A0180E090E01F921F921F925D
:100AA000CF930E94DD0D8DEB91E00E94D509E0907F
:100AB0007301F090740100E010E020917F0130910B
:100AC000800140E050E060918B0170918C0180E0EA
:100AD00090E01F921F921F92CF930E94DD0D8DEB2D
:100AE00091E00E94DC09E0907501F090760100E051
:100AF00010E0209181013091820140E050E060914E
:100B00008D0170918E0180E090E01F921F92E1E0D4
:100B1000EF93E8E6EF93A12CB12C65010E94DD0D67
:100B20008DEB91E00E94E309E0907701F09078016D
:100B300000E010E0209183013091840140E050E01A
:100B400060918F017091900180E090E01F921F9260
:100B50001F92CFEFCF930E94DD0D8DEB91E00E94AD
:100B6000C009E0907901F0907A0100E010E0209156
:100B700085013091860140E050E0609191017091D3
:100B8000920180E090E01F921F921F92CF930E94EB
:100B9000DD0D8DB79EB748960FB6F8949EBF0FBE79
:100BA0008DBF8DEB91E0CF911F910F91FF90EF9052
:100BB000DF90CF90BF90AF900C94C709CF911F9159
:100BC0000F91FF90EF90DF90CF90BF90AF900C947B
:100BD0005903EAE1F1E0859194919093A801809303
:100BE000A7018BE690E09093AA018093A90181E090
:100BF0008093AB011092AC011092AD011092B00144
:100C00001092AF01ECE1F1E08591949190939E01F7
:100C100080939D018CE690E09093A00180939F01CA
:100C200082E08093A1011092A2011092A301109280
:100C3000A6011092A501EEE1F1E0859194919093C7
:100C40009401809393018DE690E0909396018093B8
:100C5000950184E080939701109298011092990178
:100C600010929C0110929B0108951F920F920FB653
:100C70000F9211242F933F938F939F93AF93BF9322
:100C80008091B5019091B601A091B701B091B801E2
:100C90003091B40123E0230F2D3720F40196A11DDC
:100CA000B11D05C026E8230F0296A11DB11D20939A
:100CB000B4018093B5019093B601A093B701B093AE
:100CC000B8018091B9019091BA01A091BB01B09196
:100CD000BC010196A11DB11D8093B9019093BA0189
:100CE000A093BB01B093BC01BF91AF919F918F9135
:100CF0003F912F910F900FBE0F901F9018952FB717
:100D0000F8946091B5017091B6018091B70190910E
:100D1000B8012FBF08953FB7F8948091B901909121
:100D2000BA01A091BB01B091BC0126B5A89B05C03A
:100D30002F3F19F00196A11DB11D3FBF6627782FE7
:100D4000892F9A2F620F711D811D911D42E0660F40
:100D5000771F881F991F4A95D1F70895CF92DF9288
:100D6000EF92FF92CF93DF936B017C010E948B0681
:100D7000EB01C114D104E104F10489F00E94290EB1
:100D80000E948B066C1B7D0B683E734090F381E0E4
:100D9000C81AD108E108F108C851DC4FEACFDF9149
:100DA000CF91FF90EF90DF90CF900895789484B525
:100DB000826084BD84B5816084BD85B5826085BD57
:100DC00085B5816085BDEEE6F0E08081816080833D
:100DD000E1E8F0E010828081826080838081816020
:100DE0008083E0E8F0E0808181608083E1E9F0E0E9
:100DF000808182608083808181608083E0E9F0E08F
:100E0000808181608083E1ECF0E080818460808378
:100E1000808182608083808181608083E3ECF0E068
:100E2000808181608083E0ECF0E08081826080835B
:100E3000E2ECF0E0808181608083EAE7F0E080818D
:100E400084608083808182608083808181608083F0
:100E5000808180688083089590E0FC013197EF30B5
:100E6000F105B0F5EA5AFF4F0C948610809180008E
:100E70008F7703C0809180008F7D809380000895DC
:100E800080918000877FF9CF84B58F7702C084B5C9
:100E90008F7D84BD0895809190008F7707C08091E9
:100EA00090008F7D03C080919000877F8093900099
:100EB00008958091C0008F7703C08091C0008F7D1E
:100EC0008093C00008958091C200877F8093C20004
:100ED0000895CF93DF9390E0FC01E652FF4F2491F9
:100EE000FC01E850FF4F8491882349F190E0880F7E
:100EF000991FFC01EE5CFE4FA591B4918C5D9E4F55
:100F0000FC01C591D4919FB7611108C0F8948C91F0
:100F1000209582238C93888182230AC0623051F409
:100F2000F8948C91322F309583238C938881822B77
:100F3000888304C0F8948C91822B8C939FBFDF919F
:100F4000CF910895CF93DF93282F30E0F901E65336
:100F5000FF4F8491F901E652FF4FD491F901E85017
:100F6000FF4FC491CC2391F081110E942C07EC2FEC
:100F7000F0E0EE0FFF1FEA5EFE4FA591B4912C91B9
:100F80002D2381E090E021F480E002C080E090E039
:100F9000DF91CF910895FF920F931F93CF93DF932B
:100FA000EC01F62EE881F9810480F581E02D0995A8
:100FB0008C01E881F9810680F781E02D6F2DCE014B
:100FC0000995C8019927DF91CF911F910F91FF904B
:100FD0000895FC0120812F5F208349E150E060ECFF
:100FE00071E080E80C94D60B45E750E069ED71E0C4
:100FF00080E80C94D60BEF92FF920F931F93CF9340
:10100000DF931F92CDB7DEB789838B017A0141E070
:1010100050E0BE016F5F7F4F84E00E943B0BA70151
:10102000B80184E40E943B0B0F90DF91CF911F9198
:101030000F91FF90EF900895FC0191818081813A9A
:1010400031F481E0913091F0933089F411C0813214
:1010500071F49B3021F482818093170105C09A308E
:1010600031F482818093160181E00895089580E033
:10107000089548E050E082E00C94FB07CF93DF93A3
:10108000DC01683818F0E8E7E60F25C0E62FF0E04D
:1010900067FF11C0E058F10981E090E001C0880FBE
:1010A000EA95EAF714969C911497982B14969C93C2
:1010B0001497E0E010C0E05CFE4FE491EE2309F4E9
:1010C00040C0E7FF08C014968C9114978260149674
:1010D0008C931497EF7716968C9116978E1741F193
:1010E00017968C9117978E1719F118968C9118975F
:1010F0008E17F1F019968C9119978E17C9F01A96E0
:101100008C911A978E17A1F01B968C911B978E17B6
:1011100079F080E090E0ED01C80FD91F2E812111F8
:1011200002C0EE8305C0019686309105A1F709C083
:10113000BD016C5F7F4FCD010E94390881E090E0D6
:1011400008C081E090E013969C938E93129780E004
:1011500090E0DF91CF910895683818F0E8E7E60F46
:1011600025C0E62FF0E067FF12C0E058F10921E04A
:1011700030E001C0220FEA95EAF72095DC011496D1
:101180003C911497322314963C93E0E00FC0E05C4E
:10119000FE4FE491EE2329F1E7FF08C0DC0114962D
:1011A0002C9114972D7F14962C93EF7720E030E04C
:1011B000EE2351F0DC01A20FB31F16964C91169747
:1011C0004E1302C016961C922F5F3F4F26303105FA
:1011D00079F7BC016C5F7F4F0E94390881E090E095
:1011E000089580E090E00895FC0116821782108631
:1011F0001186128613861482BC016C5F7F4F0C949B
:101200003908FC011182128213821582148217821E
:101210001682118610861286138614861586168607
:1012200017868FEF9FEF918B808B938B828B089526
:10123000EF92FF920F931F93CF93DF93CDB7DEB75B
:101240002D970FB6F894DEBF0FBECDBF8C01FC0109
:10125000328523859485858539832A839B838C8376
:1012600086858D8387858E838089918997FD0AC0C5
:1012700068E671E00E9431106DE270E00E9431106A
:10128000262F01C028E0F8018289938997FD09C0C3
:1012900068E671E00E9431106DE270E00E9431104A
:1012A00001C068E0F0E16F9FC0011124822B8F83A1
:1012B000F80181818158888782818158898783815B
:1012C00081588A878481958128E6E22EFF24F39451
:1012D000B7010E943110BC01882777FD8095982FB7
:1012E0000E94320F2DE73FE345E35FE30E94BE0F0C
:1012F0000E94040F6B87F80186819781B7010E94D5
:101300003110BC01882777FD8095982F0E94320FFD
:101310002DE73FE345E35FE30E94BE0F0E94040F09
:101320006C87F80180859185B7010E943110BC015E
:10133000882777FD8095982F0E94320F2DE73FE395
:1013400045E35FE30E94BE0F0E94040F6D874DE0EE
:1013500050E0BE016F5F7F4F83E00E94FB072D9638
:101360000FB6F894DEBF0FBECDBFDF91CF911F91B6
:101370000F91FF90EF900895FC0160830C94180981
:10138000FC016687208121110C9418090895FC0145
:101390006787208121110C9418090895FC0161834D
:1013A000208121110C9418090895FC016283208189
:1013B00021110C9418090895FC01638320812111E7
:1013C0000C9418090895FC01758364832081211110
:1013D0000C94180908951092DD011092D401109216
:1013E000D3018AE291E09093D2018093D1018DEBF9
:1013F00091E00C94010908950E94D6060E94FB0911
:101400008EED91E00E94BF0D0E94AB04C0E0D0E0E1
:101410000E9409052097E1F30E940000F9CF0C9487
:10142000BA10CF92DF92EF92FF920F931F93CF9358
:10143000DF936C017A01EB01E60EF71E00E010E08D
:10144000CE15DF0561F06991D601ED91FC91019017
:10145000F081E02DC6010995080F191FF1CFC801D1
:10146000DF91CF911F910F91FF90EF90DF90CF9080
:1014700008954091E2015091E3012091E001309103
:10148000E10142175307B4F49091E8009570E1F33D
:101490009091E80092FD19C08093F1008091E201E3
:1014A0009091E30101968F739927892B19F48EEFA0
:1014B0008093E8008091E2019091E301019690937E
:1014C000E3018093E20181E0089580E00895CF92E6
:1014D000DF92FF920F931F93CF93DF931F92CDB7AD
:1014E000DEB7082F162F862F880F8E5F99830E94F4
:1014F000390A83E00E94390AF02EC02E9981D92E34
:101500008C2D8F19811778F4F60184910E94390A85
:10151000082F80E00E94390A8023FFEFCF1ADF0AEC
:101520008111EECF01C081E00F90DF91CF911F912B
:101530000F91FF90DF90CF900895615030F020918F
:10154000F100FC0120830196F8CF289884E680936F
:10155000E50108952FB7FC012083F894677060932C
:10156000E9000895CF93DF931F92CDB7DEB7682FC0
:10157000CE0101960E94AA0A8091F20099819FBF34
:101580000F90DF91CF910895FF920F931F93CF9308
:10159000DF9300D0CDB7DEB7F62E8A019091E4013B
:1015A000992311F057FF03C08FEF9FEF2BC0682FD7
:1015B000CE0101967A830E94AA0A8091F20090E0FF
:1015C000A8017A81801791070CF4AC01EF2DF72F59
:1015D000F40E84E6FE1639F028988093E501909188
:1015E000F1009193F7CF4115510521F08091F20060
:1015F000882321F089818FBFCA0104C08BE68093C4
:10160000E800F8CF0F900F90DF91CF911F910F91CD
:10161000FF900895CF93DF931F92CDB7DEB741E0DF
:1016200050E0BE016F5F7F4F0E94C40A019719F41A
:10163000898190E002C08FEF9FEF0F90DF91CF91F3
:101640000895CF93DF931F92CDB7DEB7682FCE01F9
:1016500001960E94AA0A9091E800892F807295FF56
:1016600004C09091F20080E4891B99819FBF0F9084
:10167000DF91CF9108956F927F928F929F92AF9258
:10168000BF92CF92DF92EF92FF920F931F93CF936F
:10169000DF931F92CDB7DEB7782E7B01C42EB52E17
:1016A0008091E401882369F0042F152F8AEFD82E4A
:1016B000872D8072982E9AE3A92E872D8074882E0C
:1016C00011C08FEF9FEF57C0872D0E94210B682E0E
:1016D00081110CC0DA94A9F361E070E080E090E041
:1016E0000E94AE060115110579F73BC0282F30E0A6
:1016F000021713070CF4602E672DCE0101960E948D
:10170000AA0A8091E80085FF29C0262D30E0021B3F
:10171000130B992039F06A948FEF6816B1F010928C
:10172000F100F9CFF701862D77FE07C0815058F000
:1017300094919093F1003196F9CF815020F09191DE
:101740009093F100FACFE20EF31E8091E80085FF3E
:101750000FC00115110511F481100AC089818FBFD6
:10176000C1CF5D9884E68093E6018C2D9B2D03C04C
:10177000A092E800F3CF0F90DF91CF911F910F91CE
:10178000FF90EF90DF90CF90BF90AF909F908F90A1
:101790007F906F9008951092E9001092E3011092EB
:1017A000E2019093E1018093E0010895CF92DF92EE
:1017B000FF920F931F93CF93DF9300D0CDB7DEB787
:1017C000F82E8A016B0101151105B1F0F601F7FE43
:1017D00002C0849101C0808149835A830E94390AE2
:1017E00001501109FFEFCF1ADF0A49815A81811197
:1017F000EACF8FEF9FEF01C0CA010F900F90DF91EA
:10180000CF911F910F91FF90DF90CF9008951F937C
:10181000CF93DF931F92CDB7DEB7162F2091E8004C
:1018200022FFFCCF612F79830E949D0A8BEF80936A
:10183000E800812F7981972F0F90DF91CF911F9131
:101840000895CF93DF931F92CDB7DEB71982CE01F3
:1018500001960E94870ECE0101960E94E9078981B8
:1018600090E00F90DF91CF9108951F920F920FB6E5
:101870000F921124EF92FF920F931F932F933F9398
:101880004F935F936F937F938F939F93AF93BF9388
:10189000EF93FF93CF93DF93CDB7DEB76297DEBFB1
:1018A000CDBF1092E9008091E80083FFEBC068E0B3
:1018B000CE010A960E949D0A82EF8093E8009A85E5
:1018C00097FF05C08091E80080FFFCCF03C08EEF3A
:1018D0008093E800892F807609F0B9C08B8581114B
:1018E00005C01092F1001092F100C5C0282F2D7F85
:1018F000213009F4C0C0853049F48091E80080FFB0
:10190000FCCF8C8580688093E300B5C0863009F0F9
:1019100076C02D85E888F988223071F580E090E066
:101920002A8B0E94CB0B0E94210C99E08E010F5F45
:101930001F4FF801392F11923A95E9F799832A89B7
:101940002A8391E09E8390E898879AEF9987209167
:10195000E2013091E301275F3F4F3C832B838D836E
:10196000C7010E94CB0B49E050E0B80180E00E9423
:10197000D60B0E94210C7FC0C7012A8B0E94CB0B83
:101980002A89223241F482E290E00E94F407892BF6
:1019900009F071C074C0213069F488899989089769
:1019A00011F42093DF018091DF01811118C065E6F9
:1019B00072E01AC0233009F062C08C85882391F050
:1019C000823021F462E180E892E006C0813009F0C3
:1019D00056C068E087E792E00E94670A4AC063E564
:1019E00072E002C063E972E06115710509F447C055
:1019F000FB01449150E080E80E94D60B3CC0873048
:101A000009F43DC0883021F481E08093F10033C0B7
:101A1000893089F5937099F5EFE4F2E081E021E0F7
:101A200096E38093E9002093EB0034913093EC002F
:101A30009093ED008F5F3196853099F78EE7809314
:101A4000EA001092EA008C858093E40114C0888932
:101A500099890E94CB0B8E85811105C0CE010A9613
:101A60000E94920E06C0823051F4CE010A960E9466
:101A70001C08882321F08EEF8093E80003C081E2E8
:101A80008093EB0062960FB6F894DEBF0FBECDBF19
:101A9000DF91CF91FF91EF91BF91AF919F918F9186
:101AA0007F916F915F914F913F912F911F910F9176
:101AB000FF90EF900F900FBE0F901F90189580939E
:101AC000E9008091F200882319F08AE38093E8000E
:101AD00008951F920F920FB60F9211242F933F93E8
:101AE0004F935F936F937F938F939F93AF93BF9326
:101AF000EF93FF938091E1001092E10083FF0FC00C
:101B00001092E90091E09093EB001092EC0092E3C8
:101B10009093ED001092E40198E09093F00082FF22
:101B20001DC083E00E945F0D8091E601882339F09B
:101B30008091E60181508093E601882369F08091CD
:101B4000E501882359F08091E50181508093E501FA
:101B5000811104C0289A02C05D9AF1CFFF91EF91E4
:101B6000BF91AF919F918F917F916F915F914F91B5
:101B70003F912F910F900FBE0F901F9018951092CC
:101B8000E40181E08093D70080EA8093D80082E16D
:101B900089BD09B400FEFDCF61E070E080E090E017
:101BA0000E94AE0680E98093D8008CE08093E2002A
:101BB0001092E000559A209A08954F925F926F928A
:101BC0007F92AF92BF92CF92DF92EF92FF920F93EC
:101BD0001F93CF93DF93CDB7DEB729013A01621B84
:101BE000730B840B950B29893A894B895C892A19D7
:101BF0003B094C095D09298B3A8B4B8B5C8B9B0114
:101C0000AC0169897A898B899C890E942110E4182A
:101C1000F50806091709A80197010E9467102A0D07
:101C20003B1D4C1D5D1DCA01B901DF91CF911F9174
:101C30000F91FF90EF90DF90CF90BF90AF907F908B
:101C40006F905F904F90089570E09B01382BC90111
:101C500008950895CF93DF931F92CDB7DEB76983C0
:101C6000DC01ED91FC910280F381E02D41E050E038
:101C7000BE016F5F7F4F09950F90DF91CF9108955F
:101C8000CF93DF93EC018C859D8597FF05C082E0A3
:101C90000E940A0B9D878C878C859D85DF91CF9153
:101CA000089583E00C945F0DFC018485958597FD74
:101CB00006C082E00E94B20A90E00196089582E098
:101CC0000E94B20A90E00895FC018485958597FDF5
:101CD00005C02FEF3FEF35872487089582E00C94ED
:101CE0000A0BCF93DF93EC0180911F01882331F021
:101CF00083E00E943B0B1816190634F081E090E057
:101D00009B838A8380E090E0DF91CF910895FC016E
:101D100020812E5F208342E450E067E972E080E892
:101D20000C94D60BFC0181819081913A59F4813257
:101D300009F03CC047E050E068E171E080E00E94BB
:101D4000D60B43C0913291F5803239F467E070E0F0
:101D500088E191E00E94070C06C0823209F035C08C
:101D6000828180931F018091180190911901A091A7
:101D70001A01B0911B01803B9440A105B105C1F44B
:101D800080911F0180FD14C087E797E790930108B9
:101D9000809300082BE088E190E00FB6F894A895B6
:101DA000809360000FBE209360000FC080E0089514
:101DB00088E10FB6F89480936000109260000FBE27
:101DC000A895109201081092000881E008951092E1
:101DD000EA011092E90188EE93E0A0E0B0E0809380
:101DE000EB019093EC01A093ED01B093EE0188E339
:101DF00091E09093E8018093E7018FEF9FEF90933C
:101E0000F4018093F301089598D088F09F5790F0E3
:101E1000B92F9927B751A0F0D1F0660F771F881F0F
:101E2000991F1AF0BA95C9F712C0B13081F09FD04E
:101E3000B1E008959CC0672F782F8827B85F39F0EC
:101E4000B93FCCF3869577956795B395D9F73EF46E
:101E500090958095709561957F4F8F4F9F4F089516
:101E6000E89409C097FB3EF4909580957095619534
:101E70007F4F8F4F9F4F9923A9F0F92F96E9BB27EA
:101E80009395F695879577956795B795F111F8CF66
:101E9000FAF4BB0F11F460FF1BC06F5F7F4F8F4FD1
:101EA0009F4F16C0882311F096E911C0772321F0C7
:101EB0009EE8872F762F05C0662371F096E8862F5F
:101EC00070E060E02AF09A95660F771F881FDAF7B6
:101ED000880F9695879597F9089597F99F6780E8F9
:101EE00070E060E008959FEF80EC089500240A946C
:101EF0001616170618060906089500240A941216E5
:101F00001306140605060895092E0394000C11F417
:101F1000882352F0BB0F40F4BF2B11F460FF04C0C4
:101F20006F5F7F4F8F4F9F4F089557FD9058440F1D
:101F3000551F59F05F3F71F04795880F97FB991F28
:101F400061F09F3F79F087950895121613061406E5
:101F5000551FF2CF4695F1DF08C016161706180672
:101F6000991FF1CF86957105610508940895E8944D
:101F7000BB2766277727CB0197F908950BD0C4CFED
:101F8000B5DF28F0BADF18F0952309F0A6CFABCF64
:101F90001124EECFCADFA0F3959FD1F3950F50E047
:101FA000551F629FF001729FBB27F00DB11D639F0B
:101FB000AA27F00DB11DAA1F649F6627B00DA11DB1
:101FC000661F829F2227B00DA11D621F739FB00D57
:101FD000A11D621F839FA00D611D221F749F3327C7
:101FE000A00D611D231F849F600D211D822F762F60
:101FF0006A2F11249F5750408AF0E1F088234AF05D
:10200000EE0FFF1FBB1F661F771F881F91505040A8
:10201000A9F79E3F510570F060CFAACF5F3FECF368
:10202000983EDCF3869577956795B795F795E79594
:102030009F5FC1F7FE2B880F911D9695879597F9A5
:102040000895DB018F939F930E948C10BF91AF91F5
:10205000A29F800D911DA39F900DB29F900D112402
:10206000089597FB072E16F4009407D077FD09D04A
:102070000E94971007FC05D03EF4909581959F4FE4
:102080000895709561957F4F0895A1E21A2EAA1BBD
:10209000BB1BFD010DC0AA1FBB1FEE1FFF1FA21718
:1020A000B307E407F50720F0A21BB30BE40BF50B15
:1020B000661F771F881F991F1A9469F7609570959E
:1020C000809590959B01AC01BD01CF010895052E2F
:1020D00097FB1EF400940E947E1057FD07D00E94CB
:1020E000451007FC03D04EF40C947E10509540959B
:1020F000309521953F4F4F4F5F4F089590958095B4
:10210000709561957F4F8F4F9F4F0895EE0FFF1F82
:102110000590F491E02D09940E94AB10A59F900DBD
:10212000B49F900DA49F800D911D11240895AA1BAA
:10213000BB1B51E107C0AA1FBB1FA617B70710F0B2
:10214000A61BB70B881F991F5A95A9F780959095E4
:10215000BC01CD010895A29FB001B39FC001A39F10
:10216000700D811D1124911DB29F700D811D1124D0
:10217000911D0895CF93DF938230910510F482E092
:1021800090E0E0913902F0913A0220E030E0A0E0E6
:10219000B0E0309739F14081518148175907B8F0C4
:1021A0004817590771F482819381109729F013968B
:1021B0009C938E9312972CC090933A02809339028D
:1021C00027C02115310531F04217530718F0A90136
:1021D000DB0101C0EF019A01BD01DF010280F38143
:1021E000E02DD7CF21153105F9F0281B390B24300C
:1021F000310580F48A819B816115710521F0FB0115
:102200009383828304C090933A0280933902FE0143
:10221000329644C0FE01E20FF31F81939193225046
:102220003109398328833AC020913702309138022E
:10223000232B41F4209102013091030130933802A5
:1022400020933702209100013091010121153105C1
:1022500041F42DB73EB74091040150910501241B74
:10226000350BE0913702F0913802E217F307A0F442
:102270002E1B3F0B2817390778F0AC014E5F5F4FDC
:102280002417350748F04E0F5F1F509338024093D4
:1022900037028193919302C0E0E0F0E0CF01DF913B
:1022A000CF910895CF93DF93009709F487C0FC0185
:1022B000329713821282C0913902D0913A0220974C
:1022C00081F420813181280F391F8091370290914C
:1022D00038028217930779F5F0933802E0933702BA
:1022E0006DC0DE0120E030E0AE17BF0750F412965B
:1022F0004D915C9113979D014115510509F1DA014A
:10230000F3CFB383A28340815181840F951F8A1735
:102310009B0771F48D919C911197840F951F0296E4
:102320009183808312968D919C91139793838283DE
:102330002115310529F4F0933A02E09339023EC0A9
:10234000D9011396FC93EE9312974D915D91A40FD2
:10235000B51FEA17FB0779F480819181840F951FDF
:102360000296D90111969C938E9382819381139644
:102370009C938E931297E0E0F0E08A819B81009716
:1023800019F0FE01EC01F9CFCE01029628813981C6
:10239000820F931F20913702309138022817390796
:1023A00069F4309729F410923A021092390202C06F
:1023B00013821282D0933802C0933702DF91CF91FB
:1023C0000895F999FECF92BD81BDF89A992780B5FD
:1023D0000895262FF999FECF1FBA92BD81BD20BD69
:1023E0000FB6F894FA9AF99A0FBE01960895F894E8
:0223F000FFCF1D
:1023F20000003B02800001000000010204081020DE
:1024020008090A100E0F010100E10000000000009F
:10241200A7019D01930100000000CB07110A3E08AD
:10242200AC08F408000000002A0E710E540E640E6F
:04243200400E510EF9
:00000001FF
